:020000040800F2
:100000000050002021020008270200082B020008EF
:1000100043020008470200085F02000800000000D9
:10002000000000000000000000000000770200084F
:100030007B020008000000007F020008690A000837
:100040009102000891020008910200089102000844
:100050009102000891020008910200089102000834
:100060009102000891020008910200089102000824
:100070009102000891020008910200089102000814
:1000800091020008910200086D0500089102000825
:1000900091020008910200089102000891020008F4
:1000A00091020008390C0008810C0008550C00086A
:1000B000450D000891020008910200089102000815
:1000C00091020008910200089102000891020008C4
:1000D00091020008910200089102000891020008B4
:1000E000910200089102000891020008000000003F
:1000F0000000000000000000000000000000000000
:1001000000000000000000005FF808F100B583B0B7
:1001100000F0E0F8304B314A1360314A1360314B44
:10012000314A32498B4204D21168196004330432D7
:10013000F7E72A4B1A682E4B9A4200D0FEE7284B6D
:100140001A682C4B9A42F9D1234B2B4A13602B4A45
:1001500013602B4B02E000221A600433294A9342B9
:10016000F9D3254B1B6813B9244B1B6803B1FEE779
:1001700000F0BCF8694601A800F0A4F8224C234B1B
:10018000E41AA4100025AC4214DC214C214BE41AE3
:10019000A4100025AC4213DC0099019800F030FF58
:1001A00005461D4C1D4BE41AA410002C0EDC2846FD
:1001B00000F086F8154B53F8253098470135E2E7F3
:1001C000144B53F8253098470135E3E7013C134BB6
:1001D00053F824309847E8E7BABADECA0000002096
:1001E00024000020000000201C1A00082800002025
:1001F000785634123254769828000020540000209B
:100200002800002058000020BC020008BC020008A2
:10021000BC020008BC020008BC020008BC020008C6
:1002200008B5FFF773FF00BEFEE71EF0040F0CBF1A
:10023000EFF30880EFF309807146124A104700BEC1
:10024000FEE700BEFEE71EF0040F0CBFEFF30880D0
:10025000EFF3098071460C4A104700BEFEE71EF01E
:10026000040F0CBFEFF30880EFF309807146074AD3
:10027000104700BEFEE700BEFEE700BEFEE700BE80
:10028000FEE770473F0200085B02000873020008A7
:0402900000BEFEE7C7
:100294001C1A000800000020280000201C1A000876
:1002A400000000000000000028000020580000208A
:0802B400000000000000000042
:1002C000FEE7000001230360014B0B60704700BF95
:1002D0000400002008B500F073F8024A024B9A604F
:1002E00008BD00BF0000000800ED00E008B500F008
:1002F0008FF808BD82B00023019300932C4A136845
:1003000043F4803313602A4B1B6803F400330093DB
:10031000019B01330193009B1BB9019BB3F5A06FB7
:10032000F1D1234B1B6813F4003F06D00123009347
:10033000009B012B04D002B0704700230093F7E725
:100340001C4B1A6842F010021A601A6822F003026D
:100350001A601A6842F002021A60A3F580535A68C4
:100360005A605A685A605A6842F480625A605A6801
:1003700022F47C125A605A6842F4E8125A601A68F1
:1003800042F080721A600A4B1B6813F0007FFAD0AB
:10039000074B5A6822F003025A605A6842F0020280
:1003A0005A60034B5B6803F00C03082BF9D1C2E7DA
:1003B000001002400020024008B5FFF79BFF08BD77
:1003C00008B5104B1A6842F001021A6059680E4ACB
:1003D0000A405A601A6822F0847222F480321A604D
:1003E0001A6822F480221A605A6822F4FE025A60C7
:1003F0004FF41F029A60FFF7DFFF044B4FF00062DB
:100400009A6008BD001002400000FFF800ED00E017
:100410001F4B5B6803F00C03042B15D0082B17D07F
:100420001BB11C4B1C4A1A6002E01A4B1A4A1A6094
:10043000174B5B68C3F30313184AD35CDAB2154950
:100440000B68D3400B607047124B134A1A60EFE7FA
:100450000F4A53685268C3F38343023312F4803F58
:100460000AD00B4A526812F4003F0BD00C4A02FB30
:1004700003F3084A1360DBE7094A02FB03F3054A6A
:100480001360D5E7044A02FB03F3024A1360CFE787
:10049000001002401C00002000127A000C00002016
:1004A00000093D00224B9A6822F002029A60DA6A43
:1004B00022F48012DA62DA6A22F40012DA62DA6A6C
:1004C00022F48002DA62DA6A22F40002DA625A6BFB
:1004D00042F001025A635A6B42F002025A635A6BAD
:1004E00022F004025A635A6B22F008025A635A6BD4
:1004F00022F010025A639A6842F400329A609A68B5
:1005000042F480229A609A6842F400229A609A68C3
:1005100042F480129A609A6822F400629A605A68E3
:1005200042F400625A609A6842F001029A60704791
:1005300000240140034B1860034A536843F0200332
:10054000536070473400002000240140064B5A6B72
:1005500022F00F025A635A6B104358639A6842F4B0
:1005600080029A60704700BF0024014008B5034B29
:10057000D86C034B1B6880B2984708BD002401402B
:100580003400002010B407292DD8012811D018B14B
:1005900002281BD010BC704789000F2303FA01F01A
:1005A000294C236823EA000302FA01F11943216070
:1005B000F0E789000F2303FA01F0244C236823EAB3
:1005C000000302FA01F119432160E3E789000F23D8
:1005D00003FA01F01E4C236823EA000302FA01F13A
:1005E00019432160D6E70F29D4D801281ED078B14D
:1005F0000228CFD1A1F108039B000F209840154C91
:10060000216821EA000002FA03F101432160C1E7F9
:10061000A1F10804A4000F23A3400F48016821EAB8
:10062000030302FA04F119430160B3E7A1F10800E2
:1006300080000F238340094C216821EA030302FA5A
:1006400000F119432160A5E700080140000C0140BA
:10065000001001400410014004080140040C014056
:100660000F2939D8012818D010B1022829D0704795
:10067000012A0AD0002A2FD1012303FA01F11B4AD3
:10068000136823EA010313607047012303FA01F1A1
:10069000164A13680B4313607047012A09D0DAB970
:1006A000012303FA01F1124A136823EA01031360DC
:1006B0007047012303FA01F10D4A13680B431360DD
:1006C0007047012A09D03AB9012303FA01F1094A16
:1006D000136823EA010313607047012303FA01F151
:1006E000044A13680B431360704700BF0C080140B5
:1006F0000C0C01400C1001400F2904D801280AD02D
:1007000018B102280DD018467047094B1B68CB4022
:1007100003F00103F7E7074B1B68CB4003F001032D
:10072000F1E7054B1B68CB4003F00103EBE700BF8B
:1007300008080140080C01400810014008B50122DA
:100740000A211046FFF78CFF4FF4FA6000F078F9A9
:1007500000220A210120FFF783FF08BD08B502220D
:1007600001210846FFF70EFF022200210120FFF7BA
:1007700009FF022207210020FFF704FF02220621C1
:100780000020FFF7FFFE02220B210120FFF7FAFEF7
:1007900002220A210120FFF7F5FE08BD10B504462C
:1007A000C0F3001201210846FFF75AFFC4F34012BC
:1007B00000210120FFF754FFC4F38012072100201D
:1007C000FFF74EFFE20906210020FFF749FF002254
:1007D0000B210120FFF744FFFFF7B0FF04F00102F7
:1007E00001210846FFF73CFFC4F34002002101202D
:1007F000FFF736FFC4F3800207210020FFF730FF28
:10080000C4F3C00206210020FFF72AFFFFF796FF7E
:1008100010BD10B50446C0F3001201210846FFF7D1
:100820001FFFC4F3401200210120FFF719FFC4F39A
:10083000801207210020FFF713FFE20906210020A4
:10084000FFF70EFF01220B211046FFF709FFFFF70C
:1008500075FF04F0010201210846FFF701FFC4F310
:10086000400200210120FFF7FBFEC4F380020721B4
:100870000020FFF7F5FEC4F3C00206210020FFF7B9
:10088000EFFE01220B211046FFF7EAFEFFF756FFAD
:1008900010BD08B50220FFF781FF42F2107000F092
:1008A000CFF82820FFF77AFF4FF47A7000F0C8F8ED
:1008B0000E20FFF773FF4FF47A7000F0C1F80120AB
:1008C000FFF76CFF42F2107000F0BAF80620FFF755
:1008D00065FF4FF47A7000F0B3F808BD08B5012049
:1008E000FFF75CFF42F2107000F0AAF808BD10B5E7
:1008F000044602E0FFF78DFF013420780028F9D18B
:1009000010BD000010B584B0002300930193029342
:100910000393041E03DB44B1A3B2002419E02D208D
:10092000FFF777FF63429BB2F7E73020FFF771FFD5
:100930001EE0104AA2FB0312D20802EB8200410023
:100940005B1A303304A9214401F8103C93B20134FE
:1009500064B2002BEDD1013C64B207E004AB234448
:1009600013F8100CFFF755FF013C64B2002CF5DAC8
:1009700004B010BDCDCCCCCC1F2808D93B2805D85D
:100980002038012303FA00F0044B1860704701235C
:1009900003FA00F0024B1860704700BF04E100E06A
:1009A00000E100E010B4094C2360094C1C44240A07
:1009B00001FA04F41443E4B200F1604000F564402D
:1009C0002401E4B2047010BC704700BF0CED00E0DD
:1009D00000FD05FA1F291CD801280BD010B10228F0
:1009E00010D07047012303FA01F10A4A13680B4340
:1009F00013607047012303FA01F1074A13680B43A0
:100A000013607047012303FA01F1044A13680B4392
:100A100013607047141002401C100240181002406E
:100A2000034B4FF480321A60043301221A6070477E
:100A300000100240014B00221A60704710E000E0F5
:100A4000084B1A6822F002021A60586000229A606D
:100A50001A6842F001021A60024B1B6813F4803FCF
:100A6000FAD0704710E000E008B5084B1B7843B996
:100A7000074B1A6822F001021A601A6822F002027B
:100A80001A60044B1B68984708BD00BF3C0000205B
:100A900010E000E038000020D0B500F0A9FC0022F2
:100AA0000B4B00F039FE02460B460020094900F0CE
:100AB00051FB06460F46084CE06A00F089FC3246BE
:100AC0003B4600F0FFFC00F00FFF6063D0BD00BFAD
:100AD000000059400000F03F002C0140D0B500F06C
:100AE00087FC00220B4B00F017FE02460B4600204D
:100AF000094900F02FFB06460F46084CE06A00F05B
:100B000067FC32463B4600F0DDFC00F0EDFEA063E2
:100B1000D0BD00BF000059400000F03F002C014054
:100B2000D0B500F065FC00220B4B00F0F5FD02464D
:100B30000B460020094900F00DFB06460F46084C05
:100B4000E06A00F045FC32463B4600F0BBFC00F09A
:100B5000CBFEE063D0BD00BF000059400000F03F75
:100B6000002C014010B5324C0723A362236843F0E8
:100B700020032360236843F04003236000F038FC27
:100B800000222C4B00F09EFC00F0AEFE80B2E06232
:100B9000E36A6363E36AA363E36AE363A36943F01D
:100BA0000803A361A36943F40063A361E36943F00D
:100BB0000803E361236843F080032360A36943F0E3
:100BC0001003A361A36943F02003A361A36943F069
:100BD0004003A361A36943F48053A361A36943F471
:100BE0000053A361A36943F48043A361E36943F025
:100BF0001003E361E36943F02003E361E36943F039
:100C00004003E361236A43F001032362236A43F054
:100C100010032362236A43F480732362636C43F4FA
:100C200000436364236843F00103236010BD00BFE9
:100C3000002C01400000E03F08B5044A136923F08E
:100C400001031361024B1B68984708BD002C01404B
:100C50003400002008B5084B1B6913F0020F09D0BF
:100C6000054B1A6922F002021A61586B034B1B688C
:100C700080B2984708BD00BF002C0140440000200E
:100C800008B5044A136923F020031361024B1B6863
:100C9000984708BD002C01404C0000204FF08043D5
:100CA0003D229A624FF6FF72DA629A6942F00102BF
:100CB0009A619A6942F002029A615A6842F080028F
:100CC0005A609A6942F010029A619A6942F02002D1
:100CD0009A619A6942F480529A619A6942F4005288
:100CE0009A61DA6942F01002DA61DA6942F02002B0
:100CF000DA619A6822F010029A609A6822F0200263
:100D00009A609A6842F040029A609A6842F004023F
:100D10009A609A6822F002029A609A6822F00102B0
:100D20009A601A6A42F001021A62DA6842F002021C
:100D3000DA60034A10601A6842F001021A607047D4
:100D40005000002008B54FF080431B6913F0020FDC
:100D50000AD04FF080431A6922F002021A61586BE0
:100D6000024B1B6880B2984708BD00BF50000020AE
:100D700010B5B0F57A6F01D94FF47A6000F038FB06
:100D800085A3D3E9002300F09DFB00F0ADFDC0B2C8
:100D9000834B187000210846FFF7AEFC814C207091
:100DA00001210020FFF7A8FC7F4B187002210020D2
:100DB000FFF7A2FC7D4B18702378DBB2012B27D004
:100DC000784B1B78DBB2012B45D0764B1B78DBB21E
:100DD000012B62D0734B1B7823B9734B1B78DBB2AA
:100DE000012B7DD06F4B1B782BB96F4B1B78DBB27F
:100DF000012B00F094806B4B1B7843B96A4B1B7836
:100E00002BB96A4B1B78DBB2012B00F0A88010BD18
:100E1000654B1B78002BD3D1644B1B78DBB2012BC5
:100E2000CED100220F210120FFF71AFC00220D2154
:100E30000120FFF715FC0020FFF750FE0020FFF710
:100E40002BFE574B1878FFF76BFE01220E21104640
:100E5000FFF706FCDBE7544B1B78002BB5D1534B57
:100E60001B78002BB1D100220F210120FFF7F8FBE6
:100E700000220E210120FFF7F3FB0020FFF72EFEDA
:100E80000020FFF709FE464B1878FFF749FE0122C4
:100E90000D211046FFF7E4FBB9E7434B1B78DBB2AB
:100EA000012B97D1414B1B78002B93D100220F21AE
:100EB0000120FFF7D5FB00220E210120FFF7D0FB18
:100EC0000020FFF72DFE0020FFF7E6FD344B1878D9
:100ED000FFF704FE01220D211046FFF7C1FB96E744
:100EE000324B1B78002B7FF47DAF00220D210120B7
:100EF000FFF7B6FB00220E210120FFF7B1FB002017
:100F0000FFF70EFE0020FFF7C7FD254B1878FFF70F
:100F1000E5FD01220F211046FFF7A2FB77E7234BE7
:100F20001B78DBB2012B7FF466AF00220D2101207C
:100F3000FFF796FB00220E210120FFF791FB002016
:100F4000FFF7EEFD0020FFF7C9FD154B1878FFF7FE
:100F5000A3FD01220F211046FFF782FB57E7002275
:100F60000F210120FFF77CFB00220D210120FFF75C
:100F700077FB0020FFF7D4FD0020FFF7AFFD084B03
:100F80001878FFF789FD01220E211046FFF768FB54
:100F90003DE700BFAFF300809A9999999999893FED
:100FA000200000202D0000202E0000202F00002017
:100FB00008B54FF60443984214D800F019FA0022FD
:100FC0000D4B00F07FFA02460B4609A1D1E9000162
:100FD00000F0A2FB00F0A8FC084B18600320FFF70C
:100FE000B5FA08BD054B00221A60F7E7AFF30080A1
:100FF0000000000080843E4100003F40300000209F
:1010000008B5FFF70DFD02210846FFF7E3FC0321B9
:101010000220FFF7DFFC09210220FFF7DBFC0B2198
:101020000220FFF7D7FC00210120FFF7D3FC0922A3
:1010300008210020FFF7A6FA092211460020FFF739
:10104000A1FA09220A210020FFF79CFA01220D21B2
:101050001046FFF797FA01220E211046FFF792FA89
:1010600001220F211046FFF78DFA042200210846C5
:10107000FFF788FA042201210020FFF783FA0422F7
:1010800002210020FFF77EFA002203211046FFF71D
:1010900079FAFFF763FBFFF7CDFC1220FFF76CFC3A
:1010A0001C20FFF769FC234C2346012211461C201B
:1010B000FFF778FC2346012202211220FFF772FC81
:1010C0002346012203210620FFF76CFCFFF7EAF913
:1010D0001948FFF72FFA1948FFF7E0FDFFF7D9FB92
:1010E0001748FFF704FC00220D210120FFF7B8FA92
:1010F00000220E210120FFF7B3FA00220F21012068
:10110000FFF7AEFA4FF47A70FFF72CFD0320FFF7DC
:101110001DFAFFF7E3FB0A48FFF7E9FB094B1868E4
:1011200000F052FC00B2FFF7EDFB0748FFF788FC28
:10113000ECE700BF0003FA05710D0008B10F0008CD
:10114000141A00083000002020A1070081F000419F
:1011500002E000BF83F0004330B54FEA41044FEA9C
:10116000430594EA050F08BF90EA020F1FBF54EA37
:10117000000C55EA020C7FEA645C7FEA655C00F0D3
:10118000E2804FEA5454D4EB5555B8BF6D420CDDA4
:101190002C4480EA020281EA030382EA000083EA27
:1011A000010180EA020281EA0303362D88BF30BDC7
:1011B00011F0004F4FEA01314FF4801C4CEA11311D
:1011C00002D0404261EB410113F0004F4FEA03337C
:1011D0004CEA133302D0524263EB430394EA050F07
:1011E00000F0A780A4F10104D5F1200E0DDB02FA76
:1011F0000EFC22FA05F2801841F1000103FA0EF20A
:10120000801843FA05F359410EE0A5F120050EF1CF
:10121000200E012A03FA0EFC28BF4CF0020C43FA00
:1012200005F3C01851EBE37101F0004507D54FF00D
:10123000000EDCF1000C7EEB00006EEB0101B1F55D
:10124000801F1BD3B1F5001F0CD349085FEA3000A3
:101250004FEA3C0C04F101044FEA445212F5800FAE
:1012600080F09A80BCF1004F08BF5FEA500C50F14B
:10127000000041EB045141EA050130BD5FEA4C0C2E
:10128000404141EB010111F4801FA4F10104E9D1B7
:1012900091F0000F04BF01460020B1FA81F308BFAE
:1012A0002033A3F10B03B3F120020CDA0C3208DD7A
:1012B00002F1140CC2F10C0201FA0CF021FA02F155
:1012C0000CE002F11402D8BFC2F1200C01FA02F1C5
:1012D00020FA0CFCDCBF41EA0C019040E41AA2BFEA
:1012E00001EB0451294330BD6FEA04041F3C1CDAB2
:1012F0000C340EDC04F11404C4F1200220FA04F0D2
:1013000001FA02F340EA030021FA04F345EA03017B
:1013100030BDC4F10C04C4F1200220FA02F001FA3D
:1013200004F340EA0300294630BD21FA04F02946BF
:1013300030BD94F0000F83F4801306BF81F4801158
:101340000134013D4EE77FEA645C18BF7FEA655CCB
:1013500029D094EA050F08BF90EA020F05D054EA9D
:10136000000C04BF1946104630BD91EA030F1EBFA2
:101370000021002030BD5FEA545C05D140004941A6
:1013800028BF41F0004130BD14F580043CBF01F599
:10139000801130BD01F0004545F0FE4141F470017F
:1013A0004FF0000030BD7FEA645C1ABF194610465A
:1013B0007FEA655C1CBF0B46024650EA013406BF5B
:1013C00052EA033591EA030F41F4002130BD00BF1A
:1013D00090F0000F04BF0021704730B54FF48064D7
:1013E00004F132044FF000054FF0000150E700BF58
:1013F00090F0000F04BF0021704730B54FF48064B7
:1014000004F1320410F0004548BF40424FF00001A3
:101410003EE700BF42004FEAE2014FEA31014FEAE6
:1014200002701FBF12F07F4393F07F4F81F0605135
:10143000704732F07F4208BF704793F07F4F04BF80
:1014400041F40021704730B54FF4607401F000455D
:1014500021F000411CE700BF50EA010208BF7047BD
:1014600030B54FF000050AE050EA010208BF7047AE
:1014700030B511F0004502D5404261EB41014FF417
:10148000806404F132045FEA915C3FF4D8AE4FF01F
:1014900003025FEADC0C18BF03325FEADC0C18BF02
:1014A000033202EBDC02C2F1200300FA03FC20FA53
:1014B00002F001FA03FE40EA0E0021FA02F11444A0
:1014C000BDE600BF70B54FF0FF0C4CF4E06C1CEAB9
:1014D00011541DBF1CEA135594EA0C0F95EA0C0F2A
:1014E00000F0DEF82C4481EA030621EA4C5123EA9D
:1014F0004C5350EA013518BF52EA033541F48011CC
:1015000043F4801338D0A0FB02CE4FF00005E1FB7E
:1015100002E506F00042E0FB03E54FF00006E1FBC8
:1015200003569CF0000F18BF4EF0010EA4F1FF040B
:10153000B6F5007F64F5407404D25FEA4E0E6D414B
:1015400046EB060642EAC62141EA55514FEAC5205C
:1015500040EA5E504FEACE2EB4F1FD0C88BFBCF5D8
:10156000E06F1ED8BEF1004F08BF5FEA500E50F189
:10157000000041EB045170BD06F0004646EA01014F
:1015800040EA020081EA0301B4EB5C04C2BFD4EB81
:101590000C0541EA045170BD41F480114FF0000E7A
:1015A000013C00F3AB8014F1360FDEBF002001F0E8
:1015B000004170BDC4F10004203C35DA0C341BDC62
:1015C00004F11404C4F1200500FA05F320FA04F034
:1015D00001FA05F240EA020001F0004221F0004168
:1015E00010EBD37021FA04F642EB06015EEA430EDB
:1015F00008BF20EAD37070BDC4F10C04C4F120050B
:1016000000FA04F320FA05F001FA04F240EA0200BD
:1016100001F0004110EBD37041F100015EEA430E8E
:1016200008BF20EAD37070BDC4F1200500FA05F2AE
:101630004EEA020E20FA04F301FA05F243EA02032D
:1016400021FA04F001F0004121FA04F220EA02003C
:1016500000EBD3705EEA430E08BF20EAD37070BD82
:1016600094F0000F0FD101F00046400041EB010162
:1016700011F4801F08BF013CF7D041EA060195F044
:10168000000F18BF704703F00046520043EB0303FE
:1016900013F4801F08BF013DF7D043EA06037047EB
:1016A00094EA0C0F0CEA135518BF95EA0C0F0CD0F6
:1016B00050EA410618BF52EA4306D1D181EA03013C
:1016C00001F000414FF0000070BD50EA410606BF36
:1016D0001046194652EA430619D094EA0C0F02D17B
:1016E00050EA013613D195EA0C0F05D152EA0336C0
:1016F0001CBF104619460AD181EA030101F00041DE
:1017000041F0FE4141F470014FF0000070BD41F026
:10171000FE4141F4780170BD70B54FF0FF0C4CF400
:10172000E06C1CEA11541DBF1CEA135594EA0C0F1F
:1017300095EA0C0F00F0A7F8A4EB050481EA030E6C
:1017400052EA03354FEA013100F088804FEA033353
:101750004FF0805545EA131343EA12634FEA022221
:1017600045EA111545EA10654FEA00260EF00041E2
:101770009D4208BF964244F1FD0404F5407402D234
:101780005B084FEA3202B61A65EB03055B084FEAC5
:1017900032024FF480104FF4002CB6EB020E75EBC2
:1017A000030E22BFB61A754640EA0C005B084FEAEA
:1017B0003202B6EB020E75EB030E22BFB61A754667
:1017C00040EA5C005B084FEA3202B6EB020E75EBB2
:1017D000030E22BFB61A754640EA9C005B084FEA2A
:1017E0003202B6EB020E75EB030E22BFB61A754637
:1017F00040EADC0055EA060E18D04FEA051545EA26
:1018000016754FEA06164FEAC30343EA52734FEACE
:10181000C2025FEA1C1CC0D111F4801F0BD141EA47
:1018200000014FF000004FF0004CB6E711F4801FAC
:1018300004BF01430020B4F1FD0C88BFBCF5E06F8C
:101840003FF6AFAEB5EB030C04BFB6EB020C5FEA9C
:10185000500C50F1000041EB045170BD0EF0004EF1
:101860004EEA113114EB5C04C2BFD4EB0C0541EA23
:10187000045170BD41F480114FF0000E013C90E620
:1018800045EA060E8DE60CEA135594EA0C0F08BFE4
:1018900095EA0C0F3FF43BAF94EA0C0F0AD150EAE3
:1018A00001347FF434AF95EA0C0F7FF425AF104676
:1018B00019462CE795EA0C0F06D152EA03353FF49E
:1018C000FDAE1046194622E750EA410618BF52EA1B
:1018D00043067FF4C5AE50EA41047FF40DAF52EAEF
:1018E00043057FF4EBAE12E74A0011D212F5001265
:1018F00011D20DD56FF47873B3EB62520ED44FEA68
:10190000C12343F0004343EA505323FA02F07047E7
:101910004FF00000704750EA013002D14FF0FF3025
:1019200070474FF0000070474FEA4102B2F1E043C8
:1019300024BFB3F5001CDCF1FE5C0DD901F0004CB6
:101940004FEAC0024CEA5070B2F1004F40EB830006
:1019500008BF20F00100704711F0804F21D113F132
:101960003872BCBF01F00040704741F480114FEA6B
:101970005252C2F11802C2F1200C10FA0CF320FAF4
:1019800002F018BF40F001004FEAC1234FEAD32311
:1019900003FA0CFC40EA0C0023FA02F34FEA43037B
:1019A000CCE77FEA625307D150EA01331EBF4FF004
:1019B000FE4040F44000704701F0004040F0FE401F
:1019C00040F40000704700BF4FEA4002B2F1FE4F02
:1019D0000FD34FF09E03B3EB12620DD94FEA0023F1
:1019E00043F0004310F0004F23FA02F018BF4042CA
:1019F00070474FF00000704712F1610F01D14202B1
:101A000005D110F0004008BF6FF0004070474FF064
:0C1A1000000070475370656564203D00C5
:101A1C00785634122C00002000000000000000005A
:101A2C0000000000010203040607080900A24A0492
:081A3C0037FFFFFF32547698DA
:040000050800010DE1
:00000001FF
