:020000040800F2
:100000000050002021020008270200082B020008EF
:1000100043020008470200085F02000800000000D9
:10002000000000000000000000000000770200084F
:100030007B020008000000007F020008A9060008FB
:100040009102000891020008910200089102000844
:100050009102000891020008910200089102000834
:100060009102000891020008910200089102000824
:100070009102000891020008910200089102000814
:100080009102000891020008910200089102000804
:1000900091020008910200089102000891020008F4
:1000A00091020008910200089102000891020008E4
:1000B00091020008910200089102000891020008D4
:1000C00091020008910200089102000891020008C4
:1000D00091020008910200089102000891020008B4
:1000E000910200089102000891020008000000003F
:1000F0000000000000000000000000000000000000
:1001000000000000000000005FF808F100B583B0B7
:1001100000F0DEF8304B314A1360314A1360314B46
:10012000314A32498B4204D21168196004330432D7
:10013000F7E72A4B1A682E4B9A4200D0FEE7284B6D
:100140001A682C4B9A42F9D1234B2B4A13602B4A45
:1001500013602B4B02E000221A600433294A9342B9
:10016000F9D3254B1B6813B9244B1B6803B1FEE779
:1001700000F0BAF8694601A800F0A2F8224C234B1F
:10018000E41AA4100025AC4214DC214C214BE41AE3
:10019000A4100025AC4213DC0099019800F09CFAF1
:1001A00005461D4C1D4BE41AA410002C0EDC2846FD
:1001B00000F084F8154B53F8253098470135E2E7F5
:1001C000144B53F8253098470135E3E7013C134BB6
:1001D00053F824309847E8E7BABADECA0000002096
:1001E00020000020000000208807000824000020D4
:1001F00078563412325476982400002034000020BF
:100200002400002038000020BC020008BC020008C6
:10021000BC020008BC020008BC020008BC020008C6
:1002200008B5FFF773FF00BEFEE71EF0040F0CBF1A
:10023000EFF30880EFF309807146124A104700BEC1
:10024000FEE700BEFEE71EF0040F0CBFEFF30880D0
:10025000EFF3098071460C4A104700BEFEE71EF01E
:10026000040F0CBFEFF30880EFF309807146074AD3
:10027000104700BEFEE700BEFEE700BEFEE700BE80
:10028000FEE770473F0200085B02000873020008A7
:0402900000BEFEE7C7
:1002940088070008000000202400002088070008C8
:1002A40000000000000000002400002038000020AE
:0802B400000000000000000042
:1002BC00FEE7000001230360014B0B60704700BF99
:1002CC000400002008B500F073F8024A024B9A6053
:1002DC0008BD00BF0000000800ED00E008B500F00C
:1002EC008FF808BD82B00023019300932C4A136849
:1002FC0043F4803313602A4B1B6803F400330093E0
:10030C00019B01330193009B1BB9019BB3F5A06FBB
:10031C00F1D1234B1B6813F4003F06D0012300934B
:10032C00009B012B04D002B0704700230093F7E729
:10033C001C4B1A6842F010021A601A6822F0030271
:10034C001A601A6842F002021A60A3F580535A68C8
:10035C005A605A685A605A6842F480625A605A6805
:10036C0022F47C125A605A6842F4E8125A601A68F5
:10037C0042F080721A600A4B1B6813F0007FFAD0AF
:10038C00074B5A6822F003025A605A6842F0020284
:10039C005A60034B5B6803F00C03082BF9D1C2E7DE
:1003AC00001002400020024008B5FFF79BFF08BD7B
:1003BC0008B5104B1A6842F001021A6059680E4ACF
:1003CC000A405A601A6822F0847222F480321A6051
:1003DC001A6822F480221A605A6822F4FE025A60CB
:1003EC004FF41F029A60FFF7DFFF044B4FF00062DF
:1003FC009A6008BD001002400000FFF800ED00E01C
:10040C001F4B5B6803F00C03042B15D0082B17D083
:10041C001BB11C4B1C4A1A6002E01A4B1A4A1A6098
:10042C00174B5B68C3F30313184AD35CDAB2154954
:10043C000B68D3400B607047124B134A1A60EFE7FE
:10044C000F4A53685268C3F38343023312F4803F5C
:10045C000AD00B4A526812F4003F0BD00C4A02FB34
:10046C0003F3084A1360DBE7094A02FB03F3054A6E
:10047C001360D5E7044A02FB03F3024A1360CFE78B
:10048C00001002401C00002000127A000C0000201A
:10049C0000093D0010B407292DD8012811D018B13E
:1004AC0002281BD010BC704789000F2303FA01F0FF
:1004BC00294C236823EA000302FA01F11943216055
:1004CC00F0E789000F2303FA01F0244C236823EA98
:1004DC00000302FA01F119432160E3E789000F23BD
:1004EC0003FA01F01E4C236823EA000302FA01F11F
:1004FC0019432160D6E70F29D4D801281ED078B132
:10050C000228CFD1A1F108039B000F209840154C75
:10051C00216821EA000002FA03F101432160C1E7DE
:10052C00A1F10804A4000F23A3400F48016821EA9D
:10053C00030302FA04F119430160B3E7A1F10800C7
:10054C0080000F238340094C216821EA030302FA3F
:10055C0000F119432160A5E700080140000C01409F
:10056C00001001400410014004080140040C01403B
:10057C000F2939D8012818D010B1022829D070477A
:10058C00012A0AD0002A2FD1012303FA01F11B4AB8
:10059C00136823EA010313607047012303FA01F186
:1005AC00164A13680B4313607047012A09D0DAB955
:1005BC00012303FA01F1124A136823EA01031360C1
:1005CC007047012303FA01F10D4A13680B431360C2
:1005DC007047012A09D03AB9012303FA01F1094AFB
:1005EC00136823EA010313607047012303FA01F136
:1005FC00044A13680B431360704700BF0C0801409A
:10060C000C0C01400C1001401F291CD801280BD0E8
:10061C0010B1022810D07047012303FA01F10A4AE5
:10062C0013680B4313607047012303FA01F1074A67
:10063C0013680B4313607047012303FA01F1044A5A
:10064C0013680B4313607047141002401C100240D7
:10065C0018100240034B4FF480321A60043301220D
:10066C001A60704700100240014B00221A6070475C
:10067C0010E000E0084B1A6822F002021A60586081
:10068C0000229A601A6842F001021A60024B1B6841
:10069C0013F4803FFAD0704710E000E008B5084B27
:1006AC001B7843B9074B1A6822F001021A601A68CA
:1006BC0022F002021A60044B1B68984708BD00BF69
:1006CC003000002010E000E02C00002030B585B098
:1006DC00FFF7C0FF02210846FFF796FF01221146E3
:1006EC000020FFF7D7FE012202210020FFF7D2FEE7
:1006FC00012203210020FFF7CDFE0122042100205E
:10070C00FFF7C8FE012205210020FFF7C3FE0122DE
:10071C0006210020FFF7BEFEFFF7A6FF124B93E861
:10072C0003000290ADF80C10083393E8030000901E
:10073C00ADF80410002400E0002404AB1D190122C4
:10074C0015F8081C0020FFF713FF002215F8101CE9
:10075C001046FFF70DFF40F60550FFF78BFF0134F5
:10076C00E4B2062CE9D1E7E778070008010203049C
:0A077C000506000005060102030453
:100788007856341228000020000000000000000005
:1007980000000000010203040607080900A24A0439
:0407A80032547698B9
:040000050800010DE1
:00000001FF
